:020000040002F8
:10000000DC3E0020690202007B0202007D02020049
:1000100000000000000000000000000000000000E0
:100020000000000000000000000000007F0202004D
:1000300000000000000000008102020083020200B4
:100040008502020085020200BD5E020019750200F1
:1000500085020200000000003D63020085020200EC
:1000600085020200850202000D27020085020200BF
:10007000850202008502020085020200850202005C
:1000800085020200C14402008502020085020200CE
:10009000E344020085020200CB5C020085020200FC
:1000A000850202008502020000000000000000003E
:1000B0000000000000000000000000000000000040
:1000C00000F002F800F044F80CA030C808382418FA
:1000D0002D18A246671EAB4654465D46AC4201D180
:1000E00000F036F87E460F3E0FCCB646012633426E
:1000F00000D0FB1AA246AB4633431847A0060100C6
:10010000C00601000023002400250026103A01D378
:1001100078C1FBD8520700D330C100D50B607047BF
:1001200010B5642902D10EF087FC10BD752902D1EB
:100130000EF082FC10BD732902D10FF0D9FB10BD67
:10014000002010BD1FB5C046C0461FBD10B510BD74
:100150000FF038FC1146FFF7F5FF01F062FC0FF0DD
:1001600050FC03B4FFF7F2FF03BC0FF083FC000068
:10017000401E00BF00BF00BF00BF00BF00BF00BFE8
:1001800000BF00BF00BF00BF00BFF1D1704700003B
:10019000401E00BF00BF00BF00BF00BF00BF00BFC8
:1001A00000BF00BF00BF00BF00BFF1D1704700001B
:1001B000401E00BF00BF00BF00BF00BF00BF00BFA8
:1001C00000BF00BF00BF00BF00BFF1D170470000FB
:1001D000401E00BF00BF00BF00BF00BF00BF00BF88
:1001E00000BF00BF00BF00BF00BFF1D170470000DB
:1001F000401E00BF00BF00BF00BF00BF00BF00BF68
:1002000000BF00BF00BF00BF00BFF1D170470000BA
:10021000401E00BF00BF00BF00BF00BF00BF00BF47
:1002200000BF00BF00BF00BF00BFF1D1704700009A
:1002300070B505460C46164602E00FCC0FC5103EC1
:10024000102EFAD2082E02D303CC03C5083E042E8A
:1002500007D301CC01C5361F03E021782970641C47
:100260006D1C761EF9D270BD0A48026803210A434C
:1002700002600948804709480047FEE7FEE7FEE7BD
:10028000FEE7FEE7FEE7000005480649044A064B84
:10029000704700002405004043030200C100020033
:1002A00070370020DC3E0020703700202E482F4998
:1002B000086070472E48008CC0B2012810D12C482D
:1002C000808C0007000F0BD12948806AF02108407C
:1002D000402805D12648C06A084201D10120704754
:1002E0000020FCE72248008CC0B2012827D120481A
:1002F000808C0007000F22D11D48806AF02108423F
:1003000005D11B48C06A084201D101207047184836
:10031000806AF0210840102805D11548C06A0842BB
:1003200001D10120F2E71248806AF021084030280C
:1003300005D10F48C06A084201D10120E6E700203C
:10034000E4E710B5FFF7CEFF002805D009480A49B9
:100350004860C81309498861FFF7ACFF002802D044
:1003600001200749886010BD0024F400002400200B
:10037000C00F00F0DFFF07C000050040006C004028
:10038000000600401FB5FE4B0FCB6C460FC4022188
:1003900068464173012101701721417002F0D6F8BF
:1003A0001FBDF848F84948600020F84908607047C8
:1003B000F448F54948600020F44908607047F44863
:1003C000F14948600020F1490860704704460D4635
:1003D0001646F0A005F01FFD32462946204605F0DE
:1003E00061FB01F0DBFC04460D462A462146EF483E
:1003F000FFF7ECFF70B5EE48006804F06DF90446B5
:1004000000BF2546002D06D000BFEAA2FF210C3117
:100410002846FFF7DBFF00BF70BD70B51421E84828
:100420000EF0EFFB0020E6490870486008721920C2
:100430008001088200204882084673DF044600BF1E
:100440002546002D06D000BFDAA2FF211F31284625
:10045000FFF7BCFF00BF70BD70B574DF044600BF7E
:100460002546002D06D000BFD2A2FF212E312846FE
:10047000FFF7ACFF00BF70BD70B50022D149CC487A
:10048000006804F0F8F8044600BF2546002D06D0A9
:1004900000BFC8A2FF213D312846FFF797FF00BFEC
:1004A00000220121C903C848006804F0E4F80446AA
:1004B00000BF2546002D06D000BFBEA2FF2140315F
:1004C0002846FFF783FF00BF70BD10B504460BF050
:1004D0003DF801F07AFD10BD08B50020122310226E
:1004E0000090BA480178112005F0A7FCB8A005F0EB
:1004F00092FC08BD70B50546BC484078C00904D0E0
:10050000BB480068401CBA490860BA4840780028D7
:100510000ED0B8484078401EB6494870084640782A
:10052000002805D1FF20B4490870B4A005F073FC81
:10053000B048007800281ED0AE480078401EAD4973
:10054000087008460078002815D1B2490870B2A09A
:1005500005F061FC0020C5DFB549086000BF084612
:100560000468002C06D000BF92A2FF218B312046E8
:10057000FFF72CFF00BFAF48007800280FD0AD4830
:100580000078401EAB49087008460078002806D164
:10059000A9490870A9A005F03EFC0AF03FFB70BD18
:1005A00038B500BF0020A84B07220621009003F0B9
:1005B0009CFF044600BF2546002D06D000BF7DA24B
:1005C000FF21A9312846FFF701FF00BF00BF9F4A66
:1005D0000121774804F008F89549086000BF0846F3
:1005E0000468002C06D000BF72A2FF21AF31204664
:1005F000FFF7ECFE00BF964A0121734803F0F4FFB9
:100600008B49086000BF08460468002C06D000BF74
:1006100068A2FF21B4312046FFF7D8FE00BF38BDE5
:100620003EB500BF6846007801090901491C0091E8
:1006300068460078F02188431030009000BF0A22FD
:1006400084A168467CDF044600BF2546002D06D005
:1006500000BF58A2FF21C5312846FFF7B7FE00BFF3
:10066000002078DF044600BF2546002D06D000BFDD
:1006700050A2FF21C8312846FFF7A8FE00BF002086
:10068000019002900821684681805021C18000219C
:100690000181FF219131418101A87ADF044600BF29
:1006A0002546002D06D000BF42A2FF21D2312846A8
:1006B000FFF78CFE00BF3EBD30B5A5B00621059109
:1006C0006749684601811421818166492C481030B0
:1006D0000491006824906448017820A881742498CB
:1006E00001903C2115A80EF08CFA002015900021F5
:1006F00010A841760121818305A9189102A82190B3
:100700003C2106A80EF07DFA0220069001216846E1
:10071000818601A90E9106A915A803F07BFA04466B
:1007200000BF2546002D06D000BF22A2FF21F931CF
:100730002846FFF74BFE00BF25B030BD30B585B071
:10074000142168460EF05DFA00BF6846407B01093F
:100750000901491C68464173407BF02188431030F1
:100760006946487300BF00BF6846807B00090001EE
:10077000401C88736846807BF0218843103075E008
:1007800090FD02006A2000000075004000710040EA
:100790006A4000000D0A4170705F4572726F725FAF
:1007A00048616E646C65720A0D000000EFBEADDE3C
:1007B0004C2400202E2E5C6D61696E2E63000000BB
:1007C000EC2B0020CD0C00005024002068240020D9
:1007D0000D0A414E542B424C4520534C4156452066
:1007E0004669726D776172650A0D0000342600203B
:1007F0001426002001260020F12500204144445207
:100800002041535349474E20544D4F5554204C32AC
:1008100000000000F0250020414444522041535381
:1008200049474E20544D4F55542047570000000073
:10083000302400200D26002020260020454144447D
:100840003252554E0D0A0000F0260020CB04020063
:10085000F504020053524465765F6B697420000012
:1008600034120000D82B0020182C00206946887311
:1008700000BF00BF6846C07B00090001C87368461E
:10088000C07BF02188436946C87300BF00BF68463B
:10089000007C01090901491C68460174007CF021B3
:1008A000884310306946087400BF00200090012181
:1008B0006846017100200290642168460173694610
:1008C000FD4802F0FFF8044600BF2546002D05D084
:1008D00000BFFA4AFA492846FFF778FD00BF05B085
:1008E00030BD30B591B0402101A80EF08AF9F5A1D4
:1008F00001A803F0F5F9F8A103A803F0F1F9F8A1B4
:1009000007A803F0EDF9F9A10BA803F0E9F900BF7E
:1009100010A8007801090901491C10A8017000788D
:10092000F0218843103010A9087000BF00BF10A844
:10093000407800090001487010A84078F0218843F1
:1009400010A9487000BF01A802F030FA044600BFA9
:100950002546002D06D000BFD84A4521C9002846AB
:10096000FFF734FD00BF11B030BD30B58FB0382176
:1009700001A80EF046F96421DF480EF042F9C821C3
:10098000DE480EF03EF96422DB4904A803F0B1F919
:10099000C822DA4906A803F0ACF914206946088495
:1009A000D7A108A803F09CF900BF08A8C07A0109E4
:1009B0000901491C08A8C172C07AF021884310308F
:1009C00008A9C87200BF00BF0AA803304078000918
:1009D0000001401C0B31487008464078F0218843E4
:1009E00010300AA90331487000BF00BF0846807864
:1009F00000090001887008468078F02188430AA920
:100A00000331887000BF00BF08A8C07D010909013B
:100A1000491C08A8C175C07DF0218843103008A981
:100A2000C87500BF00BF08A8807B01090901491CE7
:100A300008A88173807BF0218843103008A988734F
:100A400000BF00BF0BA80230407800090001401C25
:100A50000E31487008464078F021884310300BA9C9
:100A60000231487000BF00BF0846807800090001CD
:100A7000887008468078F02188430BA9023188707D
:100A800000BF00BF08A8807D01090901491C08A812
:100A90008175807DF0218843103008A9887500BFDA
:100AA00000BF08A8407C01090901491C08A841743D
:100AB000407CF0218843103008A9487400BF00BF73
:100AC0000CA80130407800090001401C1131487029
:100AD00008464078F021884310300CA90131487055
:100AE00000BF00BF084680780009000188700846F2
:100AF0008078F02188430CA90131887000BF00BFC5
:100B000008A8007E01090901491C08A80176007E99
:100B1000F0218843103008A9087600BF002001901A
:100B200001216846017200200390002108A8017588
:100B3000417501A9784802F04FFC044600BF2546E4
:100B4000002D06D000BF5D4A5D4943312846FFF7BE
:100B50003DFC00BF0FB030BD10B5FFF7EFFDFFF754
:100B6000C0FEFFF702FF10BD1E206C49088008463A
:100B700080784008400088700846807802218843C9
:100B800066498870084680781C2188430C30634988
:100B90008870084680782021884360498870072043
:100BA000C87010200871704770B505462868002885
:100BB00011D13B215A48008876DF044600BF264603
:100BC000002E06D000BF3D4A3D496F313046FFF749
:100BD000FDFB00BF00E000BF00BF70BD044600BFCA
:100BE000364A37497F312046FFF7F0FB30B587B0F2
:100BF0001C2168460EF005F8002000900520C00377
:100C0000019002900321684601730021C1810174A3
:100C10004448059044480690684604F062FC044647
:100C200000BF2546002D06D000BF244A5521C9002B
:100C30002846FFF7CBFB00BF07B030BD70B50546B7
:100C400000242888132834D004DC102807D0112869
:100C500030D11AE019282ED05228F9D1F8E001F04D
:100C600033FA32A005F0D7F8002036490870012089
:100C700035490870A8882A4908803448007804213A
:100C80008843001D31490870F6E001F022FA01F0B6
:100C900016FA0AF0D9FE00202D49488048812D49D6
:100CA0000870082001F091F80C2001F08EF80D205A
:100CB00052E0A8E0DFE0B9E0002C0020B407020019
:100CC0001202000042454C574954482050524F44AC
:100CD0005543545300000000535244373331000051
:100CE00031322E30312E30310000000030312E30C4
:100CF000312E3031000000009C2A0020002B002003
:100D000030303030303030303030303030303030E3
:100D10003030303000000000182C00202824002043
:100D200004240020A90B0200DD0B02000D0A436F12
:100D30006E6E65637420776974682063656E747283
:100D4000616C00005524002054240020AD260020B2
:100D500058360020C326002001F037F809F0A3FF21
:100D60000AF08CFEF1A005F056F80020C043F649C9
:100D70000880F648007804218843F4490870F44854
:100D80000078002802D00A20F2494883EF48007812
:100D90008007800F012833D1EF480078C00914D0B4
:100DA000EA480078082188430830E84908700020A4
:100DB000C5DF044600BF2646002E05D000BFE74A27
:100DC000E7493046FFF702FB00BFE3484078C00721
:100DD000C00F15D0DD480078102188431030DB4962
:100DE00008700120C5DF044600BF2646002E06D04D
:100DF00000BFDA4ADA49891D3046FFF7E7FA00BF3B
:100E0000FFF70BFB38E000228521CF4800887FDF09
:100E1000044600BF2646002E06D000BFCF4AD04968
:100E200019313046FFF7D2FA00BF25E0A879002833
:100E30000DD131DF044600BF2646002E06D000BF8C
:100E4000C64AC74921313046FFF7C0FA00BF13E058
:100E500000221146BC480088A9DF044600BF264690
:100E6000002E06D000BFBD4A312109013046FFF7F0
:100E7000ADFA00BF00E000BF00BF70BD10B5044672
:100E8000204604F05EFC2046FFF7D8FE2146B54818
:100E900001F01BFD2146B44802F08BF810BD70B57F
:100EA00000BFB249012005F0C6FA044600BF25463E
:100EB000002D06D000BFA94AA94945312846FFF7B1
:100EC00085FA00BF00BF70BD10B50446062C02D0E5
:100ED0000F2C16D109E0A64800780D2804D1012076
:100EE000A44908700CF066FB12E0A3A004F093FF85
:100EF000A1A004F090FFFFF7BFFA1E2095490880DB
:100F000006E000BF954A964969312046FFF75EFA30
:100F100000BF10BD70B500BF00239B4A02219B4853
:100F200005F0F6F8044600BF2546002D06D000BFA8
:100F30008A4A8B497A312846FFF748FA00BF00BF3A
:100F400070BD10B50446204603F0EDFE10BD70B52F
:100F500000BF002350228E49082004F066FE05469B
:100F600000BF2E46002E06D000BF7C4A7C4994313B
:100F70003046FFF72BFA00BF00BF864804F08AFE18
:100F8000044600BF2546002D06D000BF734A7449B1
:100F900098312846FFF71AFA00BF7F4804F083FE15
:100FA000044600BF2546002D06D000BF6B4A6C49A1
:100FB0009C312846FFF70AFA00BF784804F07CFE0F
:100FC000044600BF2546002D06D000BF634A644991
:100FD000A0312846FFF7FAF900BF70BD70B53DDFBC
:100FE000044600BF2546002D06D000BF5B4A5C4981
:100FF000AC312846FFF7EAF900BF70BDF8B50646E8
:101000000D461446664930680968884270D06549C3
:101010003068096888426CD163A004F0FCFE2B00A4
:101020000EF04CFD0624832582048124002C1AD165
:10103000494840784007C00F11D047484078042104
:101040008843454948705EA004F0E5FE4248407878
:101050002021884320304049487000F09FFE5FA067
:1010600004F0D9FE02E064A004F0D5FE2EE1002CCD
:1010700055D168A004F0CFFE00206B4908706B4882
:101080000078801E03000EF019FD07051B2844356B
:101090003910440066A004F0BEFE2F48407820219D
:1010A000884320302C49487034E069A004F0B3FE36
:1010B000294840782021884320302749487029E07A
:1010C0006B480078401C6A49087023480078082162
:1010D00088430830204908701CE06548007865495D
:1010E000097840186249087000206249087011E0D0
:1010F00053E1ECE000205E4908700BE05EA004F0D4
:101100008AFE1548407820218843203012494870D3
:1011100000E000BF00BF00204449087002E05AA070
:1011200004F079FED2E0C1E0B6E0C9E00D0A4469FE
:1011300073636F6E6E65637420776974682063658E
:101140006E7472616C00000004240020AD26002043
:10115000C62600205836002034260020B40702009E
:10116000E9020000002C0020182C0020382A002062
:10117000CC260020B82600200D0A464143545F5279
:10118000455345545F535700660600001024002065
:101190004C2A00207D0E02002D950200430F020014
:1011A000342400203C240020414E5420466C6173BE
:1011B00068204F7065726174696F6E0D0A000000DF
:1011C00050616765204572617365204F4B20666FE3
:1011D000722052455345540D0A0000005061676566
:1011E000204572617365204F4B20666F72205772E5
:1011F0006974650D0A000000414E5420466C61730D
:101200006820506167652045726173652046616999
:101210006C0D0A0053746F726520537563657373A8
:1012200066756C6C790D0A0025260020FB250020D0
:1012300053412053544F5245205355434345535334
:101240002C5245534554204E4F44450D0A00000092
:1012500044594E41205041524120434C4541522C6B
:101260005245534554204E4F44450D0A000000009E
:1012700050260020032600204445564943455F4E32
:101280004F5F4144440D0A0053746F7265204661FC
:10129000696C0D0A00000000002C03D1F6A004F0D8
:1012A000BAFD02E0F9A004F0B6FD0FE0002C03D176
:1012B000F9A004F0B0FD02E0FDA004F0ACFD05E0F3
:1012C000002C02D1FEA004F0A6FD00BF65E0FE499F
:1012D00030680968884260D12B000EF0EFFB065D94
:1012E0005C055A045B5D57E0002C4BD1F748007851
:1012F00080088000F5490870084600780007C00F94
:101300001CD00020C4DFF249086000BF084607680F
:10131000002F05D000BFEF4AEF493846FFF756F8D7
:1013200000BFEE480078802188438030EB49087088
:10133000E648007808218843E4490870E3480078CB
:10134000C006C00F24D00120C4DFE149086000BFFF
:1013500008460768002F06D000BFDE4ADE490D317F
:101360003846FFF733F800BFDC48407840084000BB
:10137000401CDA494870D548007810218843D34989
:10138000087005E0D148007880088000CF490870D7
:1013900002E001E000E000BF00BFF8BD7CB50546FB
:1013A0006868002801D107207CBD012189026846B8
:1013B00081800121C180CA480090CA49684603F073
:1013C000A1FD044600BF2646002E06D000BFC14A3C
:1013D000C14969313046FEF7F9FF00BFBA49684696
:1013E00003F090FD044600BF2646002E06D000BF45
:1013F000B84AB9496D313046FEF7E8FF00BFBA4937
:10140000684603F07FFD044600BF2646002E06D046
:1014100000BFB04AB04971313046FEF7D7FF00BF78
:101420000020C1E7044600BFAA4AAB497E312046EE
:10143000FEF7CCFF7CB503F019FD044600BF25463E
:10144000002D06D000BFA34AA3498B312846FEF7E2
:10145000BDFF00BFF12168460170F2214170A34831
:1014600001906846FFF79AFF044600BF2546002D0D
:1014700006D000BF974A984993312846FEF7A6FF49
:1014800000BF7CBDF7B582B00746154629463846F1
:1014900003F05DFF044600BF2646002E06D000BFC5
:1014A0008C4A8D499D313046FEF790FF00BF6A4659
:1014B0000021384603F0D8FD044600232A4668463A
:1014C000039903F015FE044600BF2646002E06D001
:1014D00000BF804A8049A6313046FEF777FF00BF43
:1014E00005B0F0BD73B501218902684603F02FFFF6
:1014F000044600BF2546002D06D000BF754AA52131
:10150000C9002846FEF762FF00BF7CBD10B544212C
:1015100077480DF074FB642176480DF070FB642170
:1015200075480DF06CFB6421724864300DF067FB68
:101530006421714864300DF062FB32216F480DF078
:101540005EFB6248007880088000604908700846A9
:101550000078042188435D49087008460078082116
:1015600088435A4908700846007810218843574933
:1015700008705A48007840084000584908700846EA
:1015800000780221884355490870084600780421F4
:1015900088435249087008460078082188434F491B
:1015A000087008460078102188434C4908700846A6
:1015B0000078202188434949087008460078402176
:1015C000884346490870084600788021884343498B
:1015D0000870084640784008400048700846407847
:1015E000022188433D4948700846407804218843D9
:1015F0003A4948700846407808218843374948707E
:10160000084640781021884334494870084640789D
:10161000202188433149487008464078802188431A
:101620002E494870084640784021884340302B4975
:101630004870012032490870284800780421884306
:101640002649087010BD70B50023012220211846DC
:10165000C2DF044600BF2546002D06D000BF1D4A4C
:101660001D49F0312846FEF7B1FE00BF2048C3797E
:1016700082798188002045E04C6F61642053756356
:1016800065737366756C6C790D0A00004C6F61644C
:10169000204661696C0D0A005570646174652053C1
:1016A000756365737366756C6C790D0A00000000D4
:1016B000557064617465204661696C0D0A00000014
:1016C0004572726F720D0A0044240020AD2600207E
:1016D00030240020B40702007C04000034260020DF
:1016E000FD0F0200342400203C24002025140200B9
:1016F000143300202C320020643100206433002099
:10170000FE250020D3DF044600BF2546002D05D06E
:1017100000BFFE4AFE492846FEF758FE00BFFD48BE
:10172000007C002812D11921CDDF044600BF2546D8
:10173000002D06D000BFF54AF549C91D2846FEF721
:1017400045FE00BFF4A004F066FB2CE0F4A004F01A
:1017500062FBF048807C002812D11921CDDF0446BD
:1017600000BF2546002D06D000BFE84AE8491E31DB
:101770002846FEF72BFE00BFECA004F04CFB12E065
:1017800019210020CDDF044600BF2546002D06D0DC
:1017900000BFDE4ADE492E312846FEF717FE00BFA5
:1017A000E4A004F038FB012149030020D1DF044606
:1017B00000BF2546002D06D000BFD44AD4493D3194
:1017C0002846FEF703FE00BF042211460020CFDFAB
:1017D000044600BF2546002D06D000BFCB4ACC49A9
:1017E00041312846FEF7F2FD00BF04210020D6DF7C
:1017F000044600BF2546002D06D000BFC34AC44999
:1018000045312846FEF7E2FD00BF14210020DADF53
:10181000044600BF2546002D06D000BFBB4ABC4988
:1018200049312846FEF7D2FD00BF0020C4DF044640
:1018300000BF2546002D06D000BFB44AB4494D3143
:101840002846FEF7C3FD00BFBC48007880218843CE
:101850008030BA490870BAA004F0DDFA70BD70B5E6
:101860000023012230211046C2DF044600BF254676
:10187000002D06D000BFA54AA5496F312846FEF7C6
:10188000A5FD00BFA3488188022305220120D3DFE4
:10189000044600BF2546002D06D000BF9B4A9C4948
:1018A00076312846FEF792FD00BF19210120CDDFD9
:1018B000044600BF2546002D06D000BF934A5F2195
:1018C00009012846FEF782FD00BF012149030120DE
:1018D000D1DF044600BF2546002D06D000BF8B4A4D
:1018E0008B4984312846FEF771FD00BF0422114662
:1018F0000120CFDF044600BF2546002D06D000BFE3
:10190000824A834988312846FEF760FD00BF0120E6
:10191000C4DF044600BF2546002D06D000BF7B4A29
:101920007B498C312846FEF751FD00BF8348407843
:1019300040084000401C8149487084A004F06BFAC4
:1019400070BD70B5FFF77FFE7248007C002838D06C
:101950007048007C80490870002048708870C8700A
:101960006C48007A08716B48407A48716948807AFF
:1019700088716848C07AC8710A4608210020C7DF0C
:10198000044600BF2546002D06D000BF5F4A6049CF
:10199000B2312846FEF71AFD00BF5E4840780028A5
:1019A0000CD15C48807C012808DA6CA004F033FA82
:1019B000FFF755FF6C48007807F0ACFC0F206B492F
:1019C000087070BD10B5142169480DF01AF9102285
:1019D000684967480DF0B6F86748807A644908742A
:1019E0000846407C6449C9780843614948746248A4
:1019F0000079887409F007FD10BD10B5112000F0C2
:101A0000D6F9122000F0D3F9132000F0D0F91120FC
:101A100000F0D6F9122000F0D3F9132000F0D0F92D
:101A200010BD08B5FFF772FD01205449087009F098
:101A30003EFDFEF7B5FDFFF732FAFFF76BFAFFF751
:101A400086FAFFF7F7FC04F0C1FB044600BF254609
:101A5000002D05D000BF2D4A49492846FEF7B6FCA7
:101A600000BF48480078012802D00020454908708E
:101A7000FEF732FD09F0CAF80CF0C8F9FEF782FC57
:101A8000FFF7A0FFFEF7CCFDFFF766F8FEF714FEA8
:101A9000FFF7ACF8FFF768F8FEF7EEFCFEF7BDFCC9
:101AA0001C488088002806D02448007840218843BC
:101AB000403022490870002039DF33480068009028
:101AC000684605F0B7FE002039DF00F023FB002058
:101AD0002E4908702E4908702E4908702E4908704A
:101AE0002EA004F098F900BF0BF0ADFD134800786C
:101AF0004006C00F66D02D4800788007800F61D166
:101B00002B48007800285DD154E00000B4070200A3
:101B100075050000143300204E4F2053410D0A007C
:101B2000486176652053410D0A00000046300D0AD9
:101B30000000000046310D0A00000000342600209D
:101B40004348302053657455700D0A0043483120D6
:101B500053657455700D0A00543100204F50454EA6
:101B6000204348310D0A0000F12500200D260020F9
:101B7000D82B0020B933002064340020CF26002069
:101B800084060000D0260020A4FD0200BC26002010
:101B9000BA260020BB260020CC2600200D0A554185
:101BA000525420456E61626C65640000AD260020D1
:101BB00025260020FFF7C5FE86480078402188438F
:101BC00084490870844800784007C00F2AD18148B2
:101BD0000078C00917D17F484078C007C00F12D1E4
:101BE0007D4800788007800F01280CD1FF229D32AC
:101BF0007A497B48FFF746FC7748007880088000E8
:101C0000801C754908707748007801280AD176A0B1
:101C100004F001F944227B497B48FFF733FC0220A2
:101C2000704908706B4840788006C00F2BD077A0B1
:101C300004F0F1F87BA004F0EEF867490978880712
:101C4000800F0CF06AF87BA004F0E5F86548007896
:101C50000CF063F872A004F0DEF85F4800784007EB
:101C6000C00F10D15C4800788007800F0BD15D4811
:101C70000078002807D157484078202188435549EB
:101C8000487000F08BF80CF0B3FD6B480078012829
:101C900009D1FF202D306949C88309F074FA00206A
:101CA0006549087008E066480078012804D10BF007
:101CB00062FA0020624908706248007801280ED15B
:101CC00061A004F0A8F864484078801CC1B2634A5F
:101CD000614806F014FA00205A4908705BE0604839
:101CE0000078012857D15FA004F095F86148027888
:101CF0006148016858480CF025FF574800780A28C9
:101D000026D00C2842D154482030007D0D2804D024
:101D100051480BF048FF5049C8704F482030007DB3
:101D20004D490871032048700A2008700120454978
:101D3000087052A004F06FF8042148480CF046F8EF
:101D400037A004F068F844488078534908701EE0D2
:101D500041488178514801F0BEFB3F4800790D2889
:101D600013D04FA004F057F84DA004F054F84CA045
:101D700004F051F84AA004F04EF84FA004F04BF8DC
:101D80003548C178454801F0DCFB00E000BF00BFEA
:101D9000002033490870FFF721F9A5E6BFF34F8F04
:101DA0004E484F49C860BFF34F8F00BFFEE7012187
:101DB0000522120707231B02D2188300D150704757
:101DC00001218140474A9160704701218140454A85
:101DD000D160704734260020AD26002064340020F6
:101DE00044240020252600200D0A414E5420464C54
:101DF0004153482057524954452053544152540DA1
:101E00000A000000143300203C240020535953548E
:101E1000454D205245534554205452494747455259
:101E20000D0A0000464C4153482053544154453A52
:101E300000000000202000008B25002058360020E4
:101E400094260020B6260020426C65202D2D3E20D1
:101E5000414E540D0A0000009C2A0020AE260020AE
:101E6000B7260020414E54202D2D3E20424C450DDA
:101E70000A000000222600203C2600200D0A776878
:101E8000696C652054617267657420414E5420531B
:101E9000724E6F3D0000000026260020182C002006
:101EA00052454D4F54455F4F5045524154494F4E56
:101EB0005F5245530D0A000052454D4F54455F4F48
:101EC0005045524154494F4E5F4C4F434B5F554E26
:101ED0004C4F434B5F5245530D0A00000400FA0576
:101EE00000ED00E00005005070B5044660488442F3
:101EF00001DB642551E05F4884420CDD5C49091B2D
:101F0000282251430846AF2189000CF0BDFE642110
:101F1000081AC5B241E0584884420CDD5549091BF6
:101F20001E22514308464B21C9000CF0ADFE3C2156
:101F3000081AC5B231E0514884420CDD4E49091BF4
:101F40000A2251430846FF2191310CF09DFE1E21CB
:101F5000081AC5B221E04948C83884420BDD474918
:101F6000091B0A2251430846C8210CF08DFE14219A
:101F7000081AC5B211E07D20400184420CDD3F49C2
:101F8000C839091B0A225143084664210CF07CFE23
:101F90000A21081AC5B200E00025284670BD0121BB
:101FA000374A1160374A116000BF37490968002974
:101FB000FBD1364A11603249896888B20121314A21
:101FC000516000212E4A11607047F8B501202C495C
:101FD00008602C49086000BF2B4800680028FBD12E
:101FE0002A4908602648806886B201202549486051
:101FF00000202349086026497143084624494D3989
:102000000CF042FEC1004018FA3087B23846FFF7A4
:102010006BFF04461F48C179A14206DAC079201A35
:10202000052808DB1B48C47105E01A48C079A042A6
:1020300001DD1848C47164201649C8710846C17989
:10204000154800F060FD0546002D0ED0082D0CD07F
:102050001248854209D01248854206D000BF11A21D
:10206000B0212846FEF7B2F900BF2046F8BD0000B7
:1020700070170000B41400005C120000CC100000C7
:102080000075004000700040007400400071004086
:102090004C04000064340020002C002003300000B9
:1020A000013400002E2E5C626174746572792E63B7
:1020B0000000000010B5182000F020F810BD10B589
:1020C000182000F020F810BD10B5192000F016F807
:1020D00010BD10B5192000F016F810BD10B518206D
:1020E00000F00CF8192000F009F810BD10B5192007
:1020F00000F009F8182000F006F810BD0121814019
:10210000034A9160704701218140014AD1607047C4
:102110000005005010B54C206E49087007206E492C
:102120000870002048706B49087802226A4905F05F
:102130005BFA00BF694800780028FBD0052066499B
:1021400008704870634908780222634905F04CFA28
:102150000620614908700020487000BF5F48007881
:102160000028FBD05B49087802225B4905F03CFA65
:10217000092059490870E020487000BF574800788E
:102180000028FBD0534908780222534905F02CFA65
:102190000820514908700020487000BF4F4800785F
:1021A0000028FBD04B49087802224B4905F01CFA65
:1021B0000A20494908700020487000BF474800784D
:1021C0000028FBD0434908780222434905F00CFA65
:1021D0000720414908700120487000BF3F4800783F
:1021E0000028FBD03B49087802223B4905F0FCF966
:1021F00000BF3A4800780028FBD010BD08B5402049
:1022000034490870E52034490870022031490090B3
:102210000878334B0122304905F022FA08BD08B591
:1022200040202C490870E3202B49087002202949DE
:10223000009008782A4B0122274905F011FA08BDC1
:1022400008B54C202349087000202349087001205C
:10225000204900900878224B01221F4905F000FA1E
:1022600000BF1E4800780028FBD000BF1B48007844
:102270000028FBD04C20174908700120164908702F
:10228000144900900878164B5B1C0122124905F096
:10229000E7F900BF114800780028FBD000BF0F48C5
:1022A00000780028FBD04C200A49087002200A4917
:1022B00008700120074900900878094B9B1C0122F7
:1022C000054905F0CDF900BF044800780028FBD08F
:1022D00008BD704778240020A02C0020EC250020A9
:1022E000BE2C0020FEB504460B2C10DD412C0EDA6E
:1022F00020466F380CF0F3FF0546414A414B0CF085
:10230000A7FD019100900CF065FD074645E0422CC9
:1023100010DBD82C0EDA2046DC380CF0E0FF054646
:10232000394A3A4B0CF094FD019100900CF052FDAB
:10233000074632E0D92C11DB354884420EDA2046BC
:10234000EC380CF0CCFF0546324A334B0CF080FDE4
:10235000019100900CF03EFD07461EE02C48401C09
:10236000844213DBC520800084420FDA2046FF3808
:1023700034380CF0B4FF0546284A294B0CF068FDB0
:10238000019100900CF026FD074606E0C520800074
:10239000844201DD234F00E0234F3846FEBD01217A
:1023A000224A1160224A116000BF224909680029AF
:1023B000FBD1214A11601D49896888B201211C4A5C
:1023C00051600021194A1160704770B50024002542
:1023D00008E0FFF7E4FF001984B20A20FDF7C8FE09
:1023E000681CC5B2322DF4DB322120460CF04CFCC7
:1023F00084B22046FFF776FF0646304670BD0000E7
:10240000AE47E17A14AEFF3F85EB51B81E85184008
:1024100019020000D7A3703D0AD725409A999999CF
:102420009999214000005C42000048C200750040BC
:1024300000700040007400400071004001210A4A11
:1024400011600A4A116000BF094909680029FBD1DF
:10245000084A11600449896888B20121034A516021
:102460000021014A11607047007500400070004073
:10247000007400400071004030B50246002A07D0C9
:102480000120C004E54948600120E54908602CE0CE
:102490000120E3494860002123E0E24B585CE24C14
:1024A000E24B51252D015B1985005C5100BF8C006A
:1024B000DF4D28590023002B06D100BF01248440A2
:1024C000DC4DEC6000BF06E000BF01248440D94D24
:1024D000AC6000BF00BF00BF00208B00D64CE050B6
:1024E000491CD64800688142D7D330BD10B5044698
:1024F000002C04D1D2490870FFF7BEFF14E0D04889
:102500000078002804D10120CD490870FFF7B4FFFE
:10251000642C05D1CB480088401ECB49088003E0DD
:102520000A206043C849088010BD70B504460D46B6
:102530001646102C00D370BDE0B23246294644DF67
:102540000121A140084642DF00BFF4E770B5044610
:102550002078012802DB2078032802DD0020C04318
:1025600070BD607B03000DF0A9FA06040B121A215E
:10257000282F0920B54908616420B249086026E087
:102580000920B2490861FF20AE4908601FE006201B
:10259000AE4908617D20C000AA49086017E0032009
:1025A000AA4908616420A749086010E00120A749F2
:1025B0000861FF20A349086009E00020A3490861E1
:1025C0004020A049086002E00020C043C8E700BFE7
:1025D00020789A490860002019E0611C095C82009B
:1025E000934B995082009958012205231B07072518
:1025F0002D025B198D005A5100BF002182008E4BC5
:10260000995021460A31095C864A1154401C8B4975
:1026100009688842E1D301208149C86000208B49C4
:102620008860884800688A4908607D4915229201BF
:102630008918C860002085494860082085490860DD
:1026400000218448C038C16081604160016000257C
:102650001BE0804BC03BAE009919724B5B5D9B0049
:10266000724E9A196E00231D985DFFF75EFF6D494B
:10267000495D89006D4BCA186900491C231D585CCF
:102680007449B439FFF751FF6D1C6C4800688542EE
:10269000DFD303210A2028DF0A2023DF012060493D
:1026A000086000205CE782006B4B99500023694A68
:1026B000C03AD360694A674B1A60584A526801238E
:1026C000DB041A4205D10122554B5A60D204534B08
:1026D0005A600122524B1A6070475D49086000221F
:1026E0005C49C039CA605D495A4A11604B49496822
:1026F0000122D204114205D10121494A5160C90485
:10270000464A51600121464A1160704710B50021C8
:102710005048C038C160481E404988604C48006835
:10272000484908603E49152292018918C860002076
:102730004B49086031E04A48006880004649095822
:102740003748152292018018454A1268920081503C
:1027500043480068800038490858002812D1404A90
:1027600012689200324B99582E4A3D4B1B68D05C40
:102770000123032200F01EF801203949096889006D
:102780002D4A50503048018835480068FFF78BFFCC
:1027900033480068401C32490860314800682749C6
:1027A00009688842C7D308202A49086001201C49CB
:1027B000086010BD70B5002B0BD101248C401D4D5D
:1027C000EC60284C194D51263601AD198600AC51EC
:1027D0000AE001248C40174DAC60234C134D512668
:1027E0003601AD198600AC5100BF00BF00BF012407
:1027F00085000E4EAD192C600C0203252C431504E8
:102800002C431D052C43354651263601AD19860053
:10281000AC5100BF00BF00BF70BD000000A300406E
:1028200000A0004094240020001F0300006000402E
:10283000E82C002000050050F42C002098240020F3
:102840007E2400208C2400207C24002000A5004051
:102850009024002000A20040DC2C0020080800008A
:1028600080240020031F0200031F01008A88428287
:1028700070470022D24342827047F8B504460E46A4
:10288000207D002820D0B51D2988608981421AD179
:10289000288B022817D12068002814D000BF00BF61
:1028A000A97EEA7E120211430846C107C90F00291A
:1028B00002D00020009001E00120009069462046EF
:1028C0002268904700BF00BFF8BD70B505460C46B2
:1028D0002088102804D0112807D050280FD109E0F3
:1028E00021462846FFF7C2FF0AE021462846FFF7A7
:1028F000C0FF05E021462846FFF7BFFF00E000BF0C
:1029000000BF70BDF0B591B004460D46207D002893
:1029100019D00020099000BF08A800790109090119
:10292000491C08A801710079F0218843103008A9DA
:10293000087100BF697B08A841718079062188432E
:10294000801C08A988711C210AA80CF05AF908A853
:10295000007A02218843811C08A80172007A1021A4
:102960008843217D002901D0012100E000210901D7
:1029700010221140084308A9087200200B900D9006
:102980000E90207D002801D009A800E000200F90C3
:102990000020109000BF0121684681737749818132
:1029A00000BF00200290A97B68460172E97B41725A
:1029B000807A06218843811C68468172807A0821CA
:1029C0008843014668468172807A10218843014617
:1029D00068468172807A4108490068468172297B85
:1029E0000191142104A80CF00CF903A8049002A88A
:1029F00005900121684601830021418301218183E3
:102A000001A80890A088A31D04AA0AA9A2DF06466F
:102A1000002E02D0304611B0F0BDA86800284DD07D
:102A200000BF0121684681735549818100BF0020A4
:102A30000290287C6946087200BF6846407A010906
:102A4000090168464172407AF0218843694648721C
:102A500000BF6846807A06218843811C68468172DF
:102A6000807A08218843014668468172807A102165
:102A70008843014668468172807A41084900684669
:102A80008172A96801F00EF90746142104A80CF020
:102A9000B8F803A8049002A80590684607830021AF
:102AA0004183018B81830890E08822460E3204A97D
:102AB000A3DF0646002E03D03046ACE70020E081BD
:102AC0000020A8E7F8B504460D46286820600020DD
:102AD000C043608228792075FF20207400BF012147
:102AE000684681702749018000BF221D6946012088
:102AF000A0DF0646002E01D03046F8BD294620460C
:102B0000FFF700FFF9E733B585B004460025207CC8
:102B10006946097E88422FD0012104916846007ED3
:102B20002074E08806AB04AA0021A4DF0546002D2E
:102B300002D0284607B030BD608A1349884219D0B8
:102B4000207D002816D00020009001900290039074
:102B500001210491E18868460180012181700021F2
:102B6000818004A8029006A80390608A6946A6DFC7
:102B7000054600E0082500BF2846DBE7192A0000CB
:102B8000082900000F180000FFFF000070B5044680
:102B90000D4600BF002D01D0012000E000200646B8
:102BA000002E05D100BFE6A23321FDF70FFC00BFC8
:102BB00000BF00BF002C01D0012000E0002006462D
:102BC000002E05D100BFDEA23421FDF7FFFB00BFC0
:102BD00000BF2878207029882879FF231B0219401C
:102BE00000200206080A1043607028791B02296839
:102BF000194000200204080C1043A07029791B0220
:102C00002868184000210902000E0843E070287966
:102C10002071287A6071190CA8680840000AA07118
:102C20000902A8680840000CE07170BDF8B50546BF
:102C30000E46002400BF002E01D0012000E000203D
:102C40000746002F05D100BFBDA24B21FDF7BEFBFB
:102C500000BF00BF00BF002D01D0012000E0002018
:102C60000746002F05D100BFB5A24C21FDF7AEFBF2
:102C700000BF00BF32782046611CCCB22A5429190B
:102C8000708800F054F90019C4B22919B08800F016
:102C90004EF90019C4B22919F08800F048F900195A
:102CA000C4B200BF072C01D1012000E0002007467C
:102CB000002F05D100BFA2A25421FDF787FB00BF62
:102CC00000BFF8BDF0B58FB007460D4614461E464E
:102CD00000BF002D01D0012000E0002000900098EE
:102CE000002805D100BF96A26D21FDF76FFB00BF44
:102CF00000BF00BF002C01DD012000E0002000909B
:102D00000098002805D100BF8DA26E21FDF75EFB63
:102D100000BF00BF1C2107A80BF073FF6946087FA6
:102D200002218843801C69460877002008900A9099
:102D30000B900C900D9000BF012108A88176684689
:102D4000078700BF002001903178684601717178D3
:102D50004171807906218843811C684681718079A0
:102D60000821884301466846817180791021884393
:102D70000146684681718079410849006846817141
:102D8000142102A80BF03DFF0EA8029001A80390A9
:102D900068460482002141828482069502AA07A91E
:102DA00074480088149BA2DF0FB0F0BD7FB50446C5
:102DB00000BF0121684681736F49818100BF6D4A60
:102DC00003A90120A0DF0546002D02D0284604B04B
:102DD00070BD208800280DDD6848009022882346B9
:102DE0003C3367486168FFF76DFF0546002D01D051
:102DF0002846ECE7208900280EDD624800902289F1
:102E000023463C335E48401FE168FFF75BFF054601
:102E1000002D01D02846DAE7208A00280EDD5A4826
:102E20000090228A23463C335548001F6169FFF712
:102E300049FF0546002D01D02846C8E7208B002811
:102E40000EDD52480090228B23463C334C48801EB6
:102E5000E169FFF737FF0546002D01D02846B6E7A8
:102E6000208C00280EDD4A480090228C23463C33FB
:102E70004348C01E616AFFF725FF0546002D01D0BB
:102E80002846A4E7208D00280EDD42480090228DC0
:102E900023463C333A48401EE16AFFF713FF0546DC
:102EA000002D01D0284692E7206B002813D001A8FE
:102EB000216BFFF76BFE384823463C33082201A9FB
:102EC00000902F48801FFFF7FDFE0546002D01D022
:102ED00028467CE700BF606B00280FD02F48009089
:102EE000606B027923463C3301682548401CFFF79C
:102EF000E9FE0546002D01D0284668E7A06B0028B2
:102F000013D001A8A16BFFF791FE254823463C335F
:102F1000072201A900901A482730FFF7D3FE054683
:102F2000002D01D0284652E700BF00204FE702469F
:102F30000A70FF2000021040001248700220704703
:102F40002E2E5C2E2E5C2E2E5C2E2E5C2E2E5C5396
:102F50006F757263655C626C655C626C655F7365FE
:102F60007276696365735C626C655F6469732E6316
:102F7000000000009C2400200A1800009E2400206D
:102F8000292A0000A6240020AE240020B624002018
:102F9000BE240020C6240020CE240020D6240020F9
:102FA000DE2400208A88C28570470022D243C28571
:102FB000704770B505460C462088102802D01128AD
:102FC0000AD104E021462846FFF7ECFF05E0214640
:102FD0002846FFF7EAFF00E000BF00BF70BDF0B574
:102FE00091B005460C4617461E4600BF002F01D083
:102FF000012000E0002001900198002805D100BFC9
:10300000FEA2A121FDF7E2F900BF00BF00BF002E24
:1030100001DD012000E0002001900198002805D189
:1030200000BFF6A2A221FDF7D1F900BF00BF1C210D
:1030300008A80BF0E6FDFD48844207D108A90878EE
:1030400002218843801C08A9087019E0F748401E37
:10305000844202D0401D844212D108A80078082181
:103060008843411808A80170007802218843811C18
:1030700008A80170407840084000401C08A948702A
:10308000002009900B900C900D900E90297808A8C4
:1030900081776846848700200290E448401E84427D
:1030A00002D0401D84420ED100BF6846407A01091B
:1030B0000901491C68464172407AF021884310306A
:1030C0006946487200BF00BF6846007A01090901DD
:1030D000491C68460172007AF02188431030694625
:1030E000087200BF6846807A06218843811C6846C2
:1030F0008172807A08218843014668468172807A0D
:1031000010218843014668468172807A410849004F
:1031100068468172142103A80BF073FD0FA8039079
:1031200002A80490684686820021C1820683079720
:10313000A88D03AA08A9169BA2DF1090287DBC4980
:103140000870109811B0F0BDF0B591B004460D466E
:103150001746207A00281AD00020099000BF08A83E
:10316000007901090901491C08A801710079F021C1
:103170008843103008A9087100BF2720415D08A8C6
:103180004171807906218843801C08A988711C211F
:103190000AA80BF036FD08A8007A02218843811C9A
:1031A00008A80172007A10218843217A002901D0F1
:1031B000012100E00021090110221140084308A963
:1031C000087200200B900D900E90207A002801D0FC
:1031D00009A800E000200F90002010902178684698
:1031E00081739249491C81810020029000BF68468A
:1031F000007A01090901491C68460172007AF02130
:10320000884310306946087200BF2820415D684637
:1032100001722920415D68464172807A0621884307
:10322000811C68468172807A08218843014668467D
:103230008172807A10218843014668468172807AC3
:1032400041084900684681723120415D0191142195
:1032500004A80BF0D6FC03A8049002A80590012155
:1032600068460183002141830121818301A80890E0
:10327000A08D2346143304AA0AA9A2DF0646002E15
:1032800002D0304611B0F0BD0020608100BFF9E7E8
:10329000F0B591B004460D461746207A00281AD0A2
:1032A0000020099000BF08A8007901090901491C04
:1032B00008A801710079F0218843103008A908712D
:1032C00000BF2D20415D08A8417180790621884307
:1032D000801C08A988711C210AA80BF092FC08A880
:1032E000007A02218843811C08A80172007A10210B
:1032F0008843217A002901D0012100E00021090141
:1033000010221140084308A9087200200B900D906C
:103310000E90207A002801D009A800E000200F902C
:10332000002010902178684681734049C91C818132
:103330000020029000BF6846007A01090901491C7B
:1033400068460172007AF02188431030694608729D
:1033500000BF2E20415D684601722F20415D684606
:103360004172807A06218843811C68468172807A86
:1033700008218843014668468172807A102188437B
:10338000014668468172807A410849006846817228
:103390003120415D0191142104A80BF032FC03A8F7
:1033A000049002A8059014216846018300214183FE
:1033B0001421818301A80890A08D23461C3304AA00
:1033C0000AA9A2DF0646002E02D0304611B0F0BD99
:1033D0000020608100BFF9E770B586B005460C4655
:1033E000144B0FCB01AE0FC620686860207928729D
:1033F0000020C043E885294601A81DE02E2E5C2E42
:103400002E5C2E2E5C2E2E5C2E2E5C536F757263FE
:10341000655C626C655C626C655F7365727669633E
:1034200065735C626C655F73722E6300022C000032
:10343000FE240020A8FD020062DF0646002E02D016
:10344000304606B070BD2978684681759049818202
:103450002A462C3205A90120A0DF0646002E01D005
:103460003046EEE7A08900280CDD8A480090A38949
:10347000894928462269FFF7B2FD0646002E01D091
:103480003046DEE7A08A00280DDD84480090A38A3C
:103490008149491C2846A269FFF7A1FD0646002E76
:1034A00001D03046CDE72520025D21462846FFF7B2
:1034B0004BFE0646002E01D03046C2E72620025DB4
:1034C00021462846FFF7E4FE0646002E01D030468E
:1034D000B7E70020B5E733B585B0044600250121E4
:1034E00004916846017E31200155A08906AB04AAEB
:1034F0000021A4DF0546002D02D0284607B030BDCC
:10350000E08D6749884219D0207A002816D0002023
:10351000009001900290039001210491A1896846D6
:103520000180012181700021818004A8029006A8F9
:103530000390E08D6946A6DF054600E00825284691
:10354000DCE733B585B004460025012104916846C7
:10355000017E30200155A08A06AB04AA0021A4DF19
:103560000546002D02D0284607B030BDE08D4C49FD
:10357000884219D0207A002816D0002000900190AF
:103580000290039001210491A18A684601800121E3
:1035900081700021818004A8029006A80390E08D2C
:1035A0006946A6DF054600E008252846DCE770B539
:1035B00086B004460D460026C820059029783120A3
:1035C0000155364908882B4605AA0021A4DF064686
:1035D000002E02D0304606B070BDE08D30498842E2
:1035E00019D0207A002816D0002001900290039074
:1035F00004900121059129480188684681800121B4
:1036000081710021018105A803900495E08D01A935
:10361000A6DF064600E008263046DCE777B587B02F
:1036200004460E4600256846828C314604A80BF0FD
:1036300089FAA08B04AB09AA0021A4DF0546002D5E
:1036400002D028460AB070BDE08D1549884219D0D5
:10365000207A002816D0002000900190029003905C
:1036600001210991A18B684601800121817000210F
:10367000818009A8029004A80390E08D6946A6DF26
:10368000054600E008252846DCE7002070470000DA
:1036900069640000EE240020012C0000F6240020C4
:1036A000FFFF0000F7B584B004460F460698067881
:1036B000B01C1F2803DC2079801C1F2802DD0C2091
:1036C00007B0F0BD1F20801B801E85B20295B11C83
:1036D000781802A97DDF03900398002801D0039891
:1036E000EEE72068022808D168460089A84204DC79
:1036F00009200190684605890BE008200190207997
:10370000002804D02079A84201DC257901E0684630
:103710000589681CC2B23046711CCEB23A5430469C
:10372000721CD6B20199395406980178A81C081861
:10373000C1B2069801700020C2E7F8B505460C46F4
:103740002078001D1F2801DD0C20F8BD684679DFB8
:103750000646002E01D03046F7E703212278501CA0
:103760002070A95419212278501C2070A954207867
:1037700041196846008800F08AFA217840182070C4
:103780000020E2E7F8B505460F4616461C46686875
:10379000002801D10720F8BD2078801C2988401816
:1037A0001F2801DD0C20F6E72878401CC1B22278E2
:1037B000501C2070B1542178481C207077542A88FE
:1037C0002378981969680BF0BDF92078297840189A
:1037D00020700020DFE730B503461078C01C1F289A
:1037E00001DD0C2030BD02241578681C10704C558A
:1037F0000A241578681C10704C551578681C1070D8
:103800004B550020EEE7FFB587B006461D46109CDD
:103810000020069020780590002747E0B9007068E6
:1038200041180A886846028149884181002203A91B
:1038300002A864DF04900498002802D004980BB01A
:10384000F0BD6846017B099881422ED10698002878
:1038500001D0002000E00220019020786946097B19
:103860004118019808181F2801DD0C20E7E7069889
:10387000002809D12078401C20702278511C08981B
:103880002170A854012006902078421903A902A8AB
:1038900064DF04900498002801D00498CFE72078D2
:1038A0006946097B4018207000BF7F1C3088B842F1
:1038B000B4DC0698002806D021780598401C081A28
:1038C000C1B2059829540020B9E7FFB581B0074679
:1038D00015460A9E009602223846049B0299FFF77D
:1038E00092FF0446002C02D0204605B0F0BD0096A1
:1038F000102229463846049BFFF785FF0446002C1A
:1039000001D02046F1E70020EFE7014608880628AD
:1039100008DB08881922D201904205DD0888E04AB8
:10392000904201D0072070474888062808DB488865
:103930001922D201904205DD4888D94A904201D02F
:103940000720F0E70888D64A904208D0488890427D
:1039500005D008884A88904201DD0720E3E700206F
:10396000E1E7F8B506460D4614462078801D1F286D
:1039700001D90C20F8BD3046FFF7C7FF0746002FDE
:1039800001D03846F6E705212278501C2070A95452
:1039900012212278501C2070A954227851193088A5
:1039A00000F075F92178401820702278511970883C
:1039B00000F06DF92178401820700020DAE7F8B5A2
:1039C00005460E4614462879801CC7B22078801C14
:1039D000C0191F2801DD0C20F8BD781CC1B2227867
:1039E000501C2070B154FF212278501C2070B1541B
:1039F00022789119288800F04AF92178401820701F
:103A0000A88800280EDDA868002801D10720E3E778
:103A1000AA8823789819A9680BF094F82078297956
:103A2000401820700020D7E7FEB507460E46144622
:103A3000786B002801D10720FEBD0020019032E004
:103A4000796B0C22019850430D182879801CC0B264
:103A500000900098401CC1B22278501C2070B154D4
:103A600016212278501C2070B15422789119288890
:103A700000F00DF9217840182070A88800280EDD8C
:103A8000A868002801D10720D6E7AA8823789819CA
:103A9000A9680BF057F82078297940182070019810
:103AA000401CC0B201903820C15D01988142C7DC42
:103AB0000020C1E7F8B504460F4616460025002051
:103AC00030702068002809D0324639462046FFF77A
:103AD000E9FD0546002D01D02846F8BD6079002893
:103AE00008D031463846FFF728FE0546002D01D0A4
:103AF0002846F2E7208900280BDD33463A460121AB
:103B000020460830FFF73EFE0546002D01D028462E
:103B1000E3E7206900280BD00020216908563246CF
:103B20003946FFF758FE0546002D01D02846D4E758
:103B3000A08A00280CDD3B460622022120461430D4
:103B40000096FFF7C2FE0546002D01D02846C4E7C7
:103B5000A08B00280CDD3B460722032120461C30A9
:103B60000096FFF7B2FE0546002D01D02846B4E7C7
:103B7000A08C00280CDD3B46152214212046243061
:103B80000096FFF7A2FE0546002D01D02846A4E7C7
:103B9000E06A002809D032463946E06AFFF7E1FEC4
:103BA0000546002D01D0284697E7206B002809D054
:103BB00032463946206BFFF702FF0546002D01D043
:103BC00028468AE73820005D002809DD324639465C
:103BD0002046FFF729FF0546002D01D028467CE747
:103BE00028467AE701460889002807D0C8680028D7
:103BF00004D0C86800780422104201D10720704721
:103C00000020FCE701460889002801DD07207047F5
:103C10000020FCE7F3B593B00D46002112911191FD
:103C20001398002814D01398FFF7DCFF0446002CEB
:103C300002D0204615B0F0BD12AA09A91398FFF7CB
:103C400039FF0446002C01D02046F3E709AE00E01E
:103C50000026002D13D02846FFF7D4FF0446002C81
:103C600001D02046E6E711AA01A92846FFF722FF66
:103C70000446002C01D02046DCE701AF00E000271D
:103C800010A803793A46017A304672DFD2E702463D
:103C90000A70FF2000021040001248700220704796
:103CA000FFFF0000F8B505460E4600243278214695
:103CB000641C6A5472782146641C6A5400BF022C4A
:103CC00001D1012000E000200746002F05D100BFF0
:103CD00009A22021FCF77AFB00BF00BF2046F8BDF7
:103CE00070B504460D4628460AF00AFF208065603C
:103CF00070BD0280416070472E2E5C2E2E5C2E2EF1
:103D00005C2E2E5C2E2E5C536F757263655C626C4C
:103D1000655C626C655F73657276696365735C622E
:103D20006C655F7372765F636F6D6D6F6E2E63008F
:103D300010B5002819DAFE4A03071B0F083B9B0841
:103D40009B00D2588307DC0EFF23A3409A438B07C6
:103D50001B0E8407E40EA3401A43F54B0407240FFF
:103D6000083CA408A4001A5118E0F24A03231B02DD
:103D7000D21883089B00D2588307DC0EFF23A34090
:103D80009A438B071B0E8407E40EA3401A43E94BAA
:103D9000032424021B198408A4001A5110BD10B575
:103DA0000446E548846003211120FFF7C1FF10BDE0
:103DB00010B501200004E1494860E04940394860FD
:103DC000112000F0D4FC112000F0C3FC0120DC49DC
:103DD00008602F20FCF7DCF910BD10B5112001217F
:103DE0008140D44A8032116000BF01200004D349D1
:103DF0008860D249403988600120D14948602F202D
:103E0000FCF7C6F910BDF0B5024628205043CD4B53
:103E10001B68C118CC480068401C02D1CA48026027
:103E200057E0C9488B68006828246043C54C246863
:103E300000198068834217D8C34800682823584374
:103E4000C04B1B68C01880688B68C31ABE480068E6
:103E500028246043BB4C246800198360BA4800687A
:103E60004862B948026034E08B68B74D2C68286816
:103E70000DE028254543B34E3668AD19AD685B1B90
:103E8000044628254543AF4E3668AD19686A451C7F
:103E900007D028254543AB4E3668AD19AD689D4225
:103EA000E7D3451C0CD028254543A64E3668AD19EE
:103EB000AD68EE1A28254543A24F3F68ED19AE6064
:103EC0008B604862282565439E4E3668AD196A624C
:103ED00000BFF0BD70B502469B4C2168084609E062
:103EE000904200D108E0014628244443954D2D68B6
:103EF0006419606A441CF3D100BF441C00D170BD3A
:103F0000814209D1904C246828256C438D4D2D6841
:103F10006419646A8C4D2C6028244443894D2D68B3
:103F20006419A36828244443864D2D686419656A82
:103F300028244C43834E3668A419656228244C43D8
:103F4000804D2D686419606A441C0CD028244443B9
:103F50007C4D2D686419A468E51828244443794EE3
:103F60003668A419A56000BFC9E710B5112000F09C
:103F7000F7FB10BD10B5142000F0F2FB10BD70B5BA
:103F8000044672480068002813D0704A216AE0692C
:103F900012689047054600BF2E46002E07D000BF8E
:103FA0006BA2FF2155313046FCF710FA00BF00BF6D
:103FB00002E0E169206A884770BDF8B56248006890
:103FC000401C39D0002700F004FC04466C4801680E
:103FD000204600F001FC06465B48056811E02820F9
:103FE0006843584909684418A068B04200D90AE0FB
:103FF000A068361AA068C719656A2046FFF7BFFF98
:1040000000BF681CEBD100BF5E4800785E490978AC
:10401000884209D15C480078401CC0B25A490870F7
:10402000022801D1002008705748007880005749C5
:104030000F50FFF79FFF00BFF8BD014651480078C1
:10404000514A127890421DD04E480078401C4D4A8B
:10405000107010460078022801D1002010704948E5
:1040600000788000494A10580860454A086812687C
:104070008018434A1060104600680002000A106071
:10408000012070470020086000BFFAE7FEB52E4807
:10409000006801903E48007800903FE00098C00022
:1040A0003C4909684418257834E018206843616861
:1040B0000F18681CC5B2A078A84200D10025386846
:1040C000022802D0032822D10EE028217868484334
:1040D0001C4909684618307E002804D07868FFF72C
:1040E000F9FE0020307613E00CE017490968282219
:1040F0005143144A1268881800210176124A416A15
:10410000116000BF10480068401CEED100E000BF05
:1041100000BF00BF6078A842C7D100BF0098411E11
:10412000C9B200910028B9D107480168019833E06D
:104130001CED00E000E100E00015014040130140EB
:1041400000100140002500200C2500202025002023
:104150002E2E5C2E2E5C2E2E5C2E2E5C2E2E5C5374
:104160006F757263655C6170705F636F6D6D6F6EAC
:104170005C6170705F74696D65722E630000000091
:10418000102500201C2500201D25002014250020BE
:104190000525002008250020814201D00120FEBD18
:1041A0000020FCE7F0B50346002426E0FE4E36680A
:1041B00028277E43FD4F3F68F01986689E4203D949
:1041C0008668F61A86601CE086689B1B8668341930
:1041D000002686600676F44E3568F34F466A3E60E8
:1041E0004669002E08D00E193602360AC6604669A6
:1041F000066116684662156000BFEB480068401C07
:10420000D4D100BFF0BDFEB50746E7480068029074
:10421000E7480078019069E00198C000E549096825
:1042200045185CE0781C07D03E4628207043DF49E3
:1042300009684418676A23E02978182359436A6893
:1042400050182978491C29702978AA78914201D1FF
:1042500000212970466828217143D44A12688C18BD
:104260000168012902D1217E002900D037E0816850
:10427000E160C1682161016961614169216200BF3A
:10428000CD49E0680968401A0002000ACB4988421B
:1042900008D2C949E068096800F09EFA216940180F
:1042A000A06011E0C448E168006800F095FA009051
:1042B00021690098814204D921690098081AA060F8
:1042C00001E00020A06000BF0020E060206101202C
:1042D0002076801E60623046FFF795FD00BF781C97
:1042E000A0D12878697888429CD100BF0198411EEE
:1042F000C9B2019100288FD1AB4801680298814270
:1043000001D00120FEBD0020FCE7FEB50546A64811
:104310000068401C34D0A448006828214843A349C1
:1043200009684018866800F054FA0290A2480468B0
:104330002146029800F050FAC01C0190681C01D17F
:10434000FFF736FD0198B04201D2304600E00198F7
:1043500004192402240A20469949086000BF00F08D
:1043600038FA00900299009800F036FAC71C2046EF
:10437000029900F031FA874201D9FFF7F6FD01E01A
:10438000FFF72BFDFEBDFEB50020C04301908A481B
:104390000468854807686846FFF74FFE0546FFF743
:1043A00075FE0646002D05D001AA21460098FFF7AC
:1043B000F9FE01260198FFF726FF002800D001260C
:1043C000002E02D03846FFF7A0FFFEBD41707047B7
:1043D00070B502460B465078411C9078884200D157
:1043E00000211078884201D1002070BD19605078FA
:1043F0001826704355682C182046F6E7FFB581B0A3
:1044000005460E461746E9006A4A1268881869464A
:10441000FFF7DEFF0446002C02D1042005B0F0BDFA
:1044200001202060666000F0D4F9A060E760049885
:1044300020610A986061E9005E4A12688818009954
:10444000FFF7C4FFFFF796FD0020E7E7F8B5044645
:104450000E46E100574A126888186946FFF7B8FF10
:104460000546002D01D10420F8BD022028606E60B1
:10447000E100504A126888180099FFF7A7FFFFF77C
:1044800079FD0020F0E738B50446E100494A12689A
:1044900088186946FFF79CFF0546002D01D10420CE
:1044A00038BD03202860001F6860E100414A12689F
:1044B00088180099FFF78AFFFFF75CFD0020EFE7FF
:1044C00010B500203F49086000213E4841608160EE
:1044D000C16000203B49403908604860FFF76DFD2E
:1044E00010BD10B5FFF74FFF10BDFFB581B00E46F0
:1044F00017461C4620468107890F01D1012100E0A3
:104500000021002902D1072005B0F0BD002C01D107
:104510000720F9E7FFF761FC2B490A9808602B4850
:1045200006702248046000250CE000212820684322
:104530001E4A12681150282068431C4A12688018CD
:1045400001766D1CB542F0DB28207043041903206E
:104550001749087017480460183400250CE0E9007A
:10456000144A1268881800210170417087704460F5
:10457000182179430C196D1C032DF0DB0020C0437A
:104580000949086000201249087012490870142077
:1045900000F0EDF803211420FFF7CAFB142000F00F
:1045A000D8F8019818E000000C2500200025002014
:1045B000052500200825002010250020FFFF7F0092
:1045C0004015014040110140202500200425002015
:1045D0001C2500201D250020FFF7E1FB00F0F9F865
:1045E0008049086000208FE770B503460C467E487E
:1045F0000068002801D1082070BD002A01D10720E1
:10460000FAE7002B01D10720F6E700211CE0282063
:104610004843754D2D682858002814D101252820BD
:104620004843714E36683550282048436E4D2D68FA
:1046300040194460282048436B4D2D684019C261E1
:1046400019600020D8E7491C684800788142DEDB09
:104650000420D1E710B500F092F8012802D0032819
:1046600004D101E0002403E0012401E0022400BFA2
:1046700000BF204610BDFEB504460D4616465A48FA
:104680000068002801D10820FEBD58480078844207
:1046900001D2052D01D20720F6E7282060435249B8
:1046A00009680858012801D00820EDE72820604358
:1046B0004D49096840184068012801D1284600E0AA
:1046C00000200746FFF7C6FF3B462A4621460096D4
:1046D0000190FFF793FED7E770B5044642480068A3
:1046E000002801D1082070BD40480078844201D3E1
:1046F0000720F8E7282060433B490968085801284B
:1047000001D00820EFE7FFF7A5FF05462146FFF798
:104710009DFEE8E710B534480068002801D1082064
:1047200010BDFFF797FF0446FFF7ADFEF8E710B5A1
:10473000044600F04EF82060002010BD70B505461C
:104740000E4614463146284600F046F82060002008
:1047500070BDC206D20E01219140254A11607047FA
:10476000C206D20E01219140224A11607047C20652
:10477000D20E012191401F4A80321160704710B55E
:104780001D484068C105C90D002920D00A46103ACD
:10479000104600280DDA184B1C330407240F083C80
:1047A000A408A4001B598407E40EE3401B069B0FDA
:1047B0000BE00F4B032424021B198408A4001B598F
:1047C0008407E40EE3401B069B0FD8B210BD042003
:1047D000FCE70A48406870470246501A0002000A87
:1047E000704700001025002000250020042500202F
:1047F00000E100E000E200E000ED00E00015014013
:10480000002314214143F94A535414214143891888
:104810004B8003231421414389188B60002314210A
:1048200041438918CB601421414389180B6114213D
:10483000414389188B80704710B50020EC490880EF
:10484000EC490860E949091F087048708870002425
:1048500003E02046FFF7D4FF641C1E2CF9D310BDE3
:10486000FFB583B004460F4615460326E1480068AD
:1048700000280BD1002D06D10698002803D1022074
:10488000DC49086002E00120DA490860D948006884
:1048900003000BF013F907FC05304D82B7D4FC0080
:1048A000D5484069401C08D001221207126991B214
:1048B000D14A50690AF0DEF902E0012000074069A0
:1048C000401E01210907096989B24843029001206D
:1048D000000700690004820C01200007006980B213
:1048E00078430146029851DF0646002E02D102208D
:1048F000C0490860CCE0384650DF0646002E16D18D
:10490000002D11D1069800280AD12078042803D15F
:104910000720B84908600AE00520B649086006E0AB
:104920000420B449086002E00320B2490860AFE007
:10493000B1484069401C08D001221207126991B2A7
:10494000AD4A50690AF096F902E00120000740697B
:10495000401E01210907096989B24843012109075D
:104960000290096989B2794308462A46029951DFC3
:104970000646002E10D1069800280AD12078042877
:1049800003D106209B49086006E00520994908608C
:1049900002E00420974908607AE097484069401C8B
:1049A00008D001221207126991B2934A50690AF0A5
:1049B00061F902E0012000074069401E012109075A
:1049C000096989B24843A90040186188401801214B
:1049D00009070290096989B27943AA008918628897
:1049E0008818069A029951DF0646002E09D12078D0
:1049F000042803D106207F49086002E005207D4994
:104A0000086045E001200007006980B27843AB00F0
:104A1000C0180290608882082169029851DF06461A
:104A2000002E0BD1002D06D10698002803D10720B7
:104A30007049086002E006206E49086028E06E4870
:104A40004069401C08D001221207126991B26A4ADB
:104A500050690AF00FF902E0012000074069401E8A
:104A600001210907096989B2484301900120000723
:104A7000006981B201980AF0FDF8029050DF064605
:104A8000002E02D107205B49086001E0FFE700BF6C
:104A900000BF304607B0F0BDF0B585B00F275348D2
:104AA000001F00781421484350494418E5682078D5
:104AB000022804D0042823D005286FD16FE0206994
:104AC00003904B48008886026088801B04900398FE
:104AD00080190390A0888019451901218902049842
:104AE000884206D2049882082846039951DF074677
:104AF00005E0FF2201322846039951DF074680E096
:104B0000A06800013D49401800890490A068000198
:104B1000401840890390A068000140184068029046
:104B20000298A84205D103990498484361888842B5
:104B300002D0A06804280DD101200007006981B2CD
:104B400028460AF097F82A4909884618304650DF67
:104B5000074622E001200007006981B228460AF0DA
:104B600089F8064601200007006980B27043281AC0
:104B70008008019001200007006980B2711C484341
:104B800061884919401A8008009031462046009BF0
:104B9000019AFFF765FE074600BF32E030E00120D2
:104BA0000007006981B228460AF064F80646A0882A
:104BB000411901200007006980B27043081A80087B
:104BC0000490A088401961884218012000070069FC
:104BD00080B2711C4843801A8008039031462046F9
:104BE000039B049AFFF73CFE07460AE0042D0020D1
:104BF0002C25002030250020001000105C2F002004
:104C000000BF00BF002F02D10120FE498870384646
:104C100005B0F0BDFFB581B0064617460024F9483F
:104C200040781E2837D0F7480078F6494978401870
:104C3000C4B21E2C02DB20461E38C4B214206043CE
:104C4000F049091D0E5414206043401807611420D8
:104C500060434118029805C8CA6088601420604308
:104C6000E84A121D8018049941801420604380187E
:104C70000A9981800025101F8078002805D1FFF750
:104C80000BFF0546112D00D10025DE484078401C61
:104C9000DC49487000E00425284605B0F0BDF8B5B1
:104CA0000446D848007814214843D649091D0E5CB3
:104CB000081F007814214843D249091D4018806814
:104CC0000001D1490D58CF48007814214843CD49FF
:104CD000091D40184088091F00900978142251438B
:104CE000C84A121D89180B69111F097814225143F3
:104CF000C44A121D89180846083022463146A84782
:104D0000F8BD10B50024BF484078002809DDFFF742
:104D1000C3FE0446002C04D0112C02D02046FFF71D
:104D2000BEFF204610BDFEB505460026B54880787A
:104D300001287DD10020B3498870B4480068082854
:104D400011D1022D03D10020B049086002E00020FB
:104D5000AF490870FFF7D5FF0646002E02D0304657
:104D6000FFF79DFFFEBD022D02D0032D79D174E027
:104D7000A448007814214843A249091D4418A548B5
:104D80000088401CA34908802078022807D10846E3
:104D9000008880026188884201DB012000E0002059
:104DA00007462078052805D198480068072801D1D2
:104DB000012000E0002002902078042805D19348CB
:104DC0000068072801D1012000E000200190207830
:104DD00004280BD18F48008880026188884205DB57
:104DE0008A480068002801D1012000E000200090DE
:104DF0000298002807D10198002804D100980028C3
:104E000001D1002F1FD00020804908603046FFF7F5
:104E100046FF7C490878FFF7F3FC00207D490880B5
:104E200078484078401E774948700846007800E08E
:104E30001AE0401C0870084600781E2803DB08466C
:104E400000781E380870FFF75CFF0646002E02D07F
:104E50003046FFF724FF05E003E00D20FFF71FFFBA
:104E600000E000BF00BF00BF00BF7BE770B5FFF7E9
:104E7000E3FC0020684908807720C0026749086089
:104E800000206449088000BF0DE0002102015E4B54
:104E900099500201D21811810201D21891810201A8
:104EA000D2185181401C0328EFD3082057490860CD
:104EB0005B484069401C08D001221207126991B278
:104EC000574A506909F0D6FE02E001200007406908
:104ED000401E01210907096989B24843064601209D
:104EE0000007006981B2304609F0C4FE054650DF74
:104EF0000446002C04D101204249887044490870BE
:104F0000204670BDF8B504460D4600BF4048007805
:104F1000002801D10820F8BD00BF002C01D10E20CF
:104F2000F9E7002D01D10E20F5E72068002801D116
:104F30000E20F0E7A08801210907096989B288429B
:104F400002DCA088102801DA0720E4E7E0880028C6
:104F50001DD033484069401C08D001221207126955
:104F600091B22F4A506909F085FE02E00120000746
:104F70004069401E01210907096989B24843E18857
:104F8000A2885143254A12688918884201D2072015
:104F9000C1E720798007800F01D00720BBE71E48BA
:104FA0000088032801D10420B5E71B480088286049
:104FB0001A4800686860184909880901124A891866
:104FC0006868486014490988090120685050A08821
:104FD00011490988090189180881E0880E49098862
:104FE0000901891848810027A688E1884E4300BF3F
:104FF000781C87B201200007006980B2B04216D247
:1050000001200FE0002D00205C2F00203025002023
:10501000242500202C2500202625002028250020DE
:10502000001000100007006980B2361A00E0002668
:1050300001200007006980B2F74909684018F64965
:10504000086001200007006980B2B042D0D9F3485F
:1050500000880001F24940188781F0480088401C10
:10506000EE490880002056E73CB5034600BFED48F6
:105070000078002801D108203CBD00BF002B01D1E1
:105080000E20F9E7002A01D10E20F5E71868032861
:1050900005D218680001E24C2058002801D10720F1
:1050A000EAE75C68186801940090019C18680001A8
:1050B000DB4D4019008948432018019000980001F9
:1050C0002C4600194089009C2401641924896043FE
:1050D000009C2401641964680019019CA04201D855
:1050E0000720C9E7019C0098546010600020C3E7C6
:1050F000F8B504460E4615461F4600BFC94800785D
:10510000002801D10820F8BD00BF002E01D10E20DB
:10511000F9E7002C01D10E20F5E72068032805D21D
:1051200020680001BE490858002801D10720EAE79D
:1051300020680001BA494018408921680901B84A2D
:105140008918098948432168090189184968401864
:105150006168884201D80720D5E7002D06D0206875
:105160000001AF4940180089A84201DA0720CAE7C8
:10517000E81921680901AA4A89180989884201DDCC
:105180000720C0E7304600F051F9002804D0384627
:1051900000F04CF9002801D11020B4E7606800F05D
:1051A00045F9002801D11020ADE72B4632462146B3
:1051B00002200097FFF72EFDA5E7F8B504460E463E
:1051C00015461F4600BF97480078002801D10820E7
:1051D000F8BD00BF002E01D10E20F9E7002C01D14F
:1051E0000E20F5E72068032805D2206800018C49CD
:1051F0000858002801D10720EAE720680001884903
:105200004018408921680901854A8918098948435D
:10521000216809018918496840186168884201D8E5
:105220000720D5E7002D06D0206800017C494018F2
:105230000089A84201DA0720CAE7E81921680901B4
:10524000774A89180989884201DD0720C0E730467E
:1052500000F0ECF8002804D0384600F0E7F8002809
:1052600001D11020B4E7606800F0E0F8002801D117
:105270001020ADE72B463246214605200097FFF768
:10528000C9FCA5E7F8B507460C4615461E4600BF03
:1052900064480078002801D10820F8BD00BF002C28
:1052A00001D10E20F9E7002F01D10E20F5E720688B
:1052B000032805D22068000159490858002801D167
:1052C0000720EAE720680001554940184089216815
:1052D0000901534A89180989484321680901891835
:1052E000496840186168884201D80720D5E7002D39
:1052F00006D0206800014A4940180089A84201DA16
:105300000720CAE7A81921680901454A89180989AF
:10531000884201DD0720C0E7384600F087F8002802
:1053200004D0304600F082F8002801D11020B4E704
:10533000606800F07BF8002801D11020ADE76068BC
:1053400081192A46384609F0FDFB0020A5E7F8B58B
:1053500004460D4600BF33480078002801D10820DC
:10536000F8BD00BF002C01D10E20F9E7206803280A
:1053700005D2206800012A490858002801D10720D9
:10538000EEE720680001264940184089216809019C
:10539000234A8918098948432168090189184968FD
:1053A00040186168884201D80720D9E7606800F09A
:1053B0003DF8002801D11020D2E723681B01184FC7
:1053C000DB1962685B68D01A226812013B46D2186A
:1053D000118909F04FFC002901D00720C0E7002007
:1053E0002B460246214600900420FFF713FC064698
:1053F0003046B5E7014600BF0A480078002801D1D1
:105400000820704700BF002901D10E20F9E70648A7
:10541000407808600020F4E7282500202625002099
:105420005C2F002024250020002D00200146880745
:10543000800F01D1012070470020FCE70146488819
:10544000F84A1288904206DB4888F64A5288904211
:1054500001DC012070470020FCE738B50546F24822
:105460000088F24988423BD0F1480078401CF0495E
:105470000870F048007B097888420FDBE949EA4868
:10548000008875DF0446002C07D0EA4880690028B0
:1054900003D0E84881692046884721E00020E4499C
:1054A0000870E448007C00280FD03B21DE480088CB
:1054B00076DF0446002C07D0DE488069002803D040
:1054C000DC4881692046884700BFDA4840690028E7
:1054D00006D000200090D74841696846884700BF41
:1054E00038BD70B505461C222946D248FAF7A0FE01
:1054F0000020D1490870286800280BD00822C9482C
:10550000296809F01FFBC7487ADF0446002C08D041
:10551000204670BDC3487BDF0446002C01D02046E6
:10552000F7E70020C043C04908800020C049087048
:10553000C24A0021C248FFF757F8EAE710B5C04851
:105540000068FFF7C9F810BD38B5BE48FFF776FF11
:10555000002829D1B848007800280AD0B548406909
:10556000002820D000200090B24841696846884752
:1055700019E0AF480078002802D1AE48456801E044
:10558000AC48856800222946AD480068FFF773F8EB
:105590000446002C07D0A7488069002803D0A548FE
:1055A0008169204688470AE0A2484069002806D061
:1055B000012000909F4841696846884700BF00204D
:1055C0009D49087038BD10B50446A08896490880EA
:1055D000082221460E319B4809F0B4FA0020944974
:1055E00008709448C089002801D1FFF7ADFF10BDB5
:1055F00070B505460020C0438B49088000208C49C7
:1056000008708F480068FFF767F80446002C07D041
:1056100088488069002803D08648816920468847E9
:1056200070BDF0B585B00746BC1D0620029000266F
:1056300006250020019084A000F0EDFB20887D4924
:10564000C989884221D1208B02281ED100BF00BF0A
:10565000A17EE27E120211430846C107C90F00294C
:1056600002D0FFF771FF10E075480068FFF734F8CB
:1056700000900098002807D06E488069002803D069
:105680006C4881690098884700BF2088764909786E
:10569000884241D175A000F0BEFB387A062844D17B
:1056A0007A4840780002794909780843039078489D
:1056B00001880398814224D1681E7449085C000265
:1056C000A91E724A515C0843064617E0681E6F49DE
:1056D000085C0002A91E6D4A515C08430646511938
:1056E0006C4B019A9818324609F02CFA01988019EF
:1056F00080B2019002982818801985B2002EE5D159
:1057000000256548654908800198C2B2614963482F
:10571000008806F0AEFA08E061A000F07CFB227E73
:10572000208921461A3106F0A4FA05B0F0BD10B563
:1057300004460822A11D434809F004FAFFF704FFBC
:1057400010BD7CB50546288811282BD006DC022820
:105750004AD0032860D0102862D104E012283CD03F
:105760005028F9D132E02846FFF72DFFFCF72DFC39
:10577000012054490870002053490870C82153483B
:1057800009F03DFAFF20514908705148807A48706D
:105790005048FDF70CFF50A000F03DFB2846FFF7F6
:1057A00012FF1CE100204749087052490870464921
:1057B0000870514908701021504809F020FA50A093
:1057C00000F029FB2846FFF713FF08E154A000F082
:1057D00022FB2846FFF725FF01E157A000F01BFB45
:1057E0002846FFF7A4FFFAE05CA000F014FB8C2031
:1057F00069468880254800900B48008866DF04468B
:10580000002C05D022465DA1654809F0A1F802E010
:1058100064A000F000FBE2E068A000F0FCFADEE02B
:10582000DCE000003E25002048250020FFFF0000AE
:10583000462500208C2F0020352500205B540200D7
:10584000542500204A2500206F6E5F7772697465C9
:105850002028626C655F636F6E6E5F706172616D50
:10586000732E63290D0A0000FE2400204C4F4E4782
:1058700020434841524143544552495354494320DF
:105880005752495454454E210D0A0000B22F0020B2
:10589000EE2400209C2A0020012C00005825002026
:1058A0004E4F524D414C2043484152414354455282
:1058B0004953544943205752495454454E210D0AE7
:1058C000000000003425002096260020002B002038
:1058D00064340020182C00200D0A424C455F4741DB
:1058E000505F4556545F434F4E4E45435445440D1B
:1058F0000A00000095260020B5260020C82B0020B5
:105900000D0A424C455F4741505F4556545F44493C
:1059100053434F4E4E45435445440D0A000000008A
:105920000D0A424C455F47415454535F4556545FFE
:1059300057524954450D0A000D0A424C455F4741F4
:10594000505F4556545F434F4E4E5F504152414D5C
:105950005F5550444154450D0A0000000D0A424C69
:10596000455F4556545F555345525F4D454D5F5217
:105970004551554553540D0A000000004552524F01
:10598000522073645F626C655F757365725F6D65ED
:105990006D5F7265706C793A2025750D0A00000004
:1059A000A82F0020555345525F4D454D5F5245513C
:1059B00055455354204F4B0D0A0000000D0A424C30
:1059C000455F4556545F555345525F4D454D5F52B7
:1059D000454C454153450D0A0000000000BF00BF83
:1059E0007CBD38B50446082221461D4809F0AAF8B6
:1059F0001B487ADF0546002D1CD11A48FFF71EFD13
:105A000000280BD101201849087015491748008853
:105A100075DF05460120164908700BE015484069FE
:105A2000002806D001200090124841696846884746
:105A300000BF0025284638BD70B513210B480088EB
:105A400076DF044600BF2546002D07D000BF0AA21E
:105A5000FF21C6312846FAF7B9FC00BF00BF70BD70
:105A60003E2500204A25002035250020482500201D
:105A7000462500208C2F00202E2E5C2E2E5C2E2EF4
:105A80005C2E2E5C2E2E5C536F757263655C626CAF
:105A9000655C626C655F636F6E6E5F706172616D95
:105AA000732E6300F8B504460D4616467F22314634
:105AB000104809F0A9F800210E486030C1770E495E
:105AC0000D800E480460084600880C48006872B6D5
:105AD000334622460AA11148009508F039FF0F48C5
